S00F000066696E616C2E632E737265637A
S11300000C94C7000C94E6000C94E6000C94E600F3
S11300100C94E6000C94E6000C94E6000C94E600C4
S11300200C94EC000C94E6000C94E6000C94E600AE
S11300300C94BF030C94E6000C94E6000C94E600C8
S11300400C9441050C94E6000C94FB000C94E6001F
S11300500C94E6000C94E6000C94E6000C94E60084
S11300600C94E6000C94E6000C94E6000C94E60074
S11300700C94E6000C94E6000C94E6000C94E60064
S11300800C94E6000C94AB0A0C94E6006101610147
S1130090610161016101610161016101610161014C
S11300A0610161016101610161016101610161013C
S11300B0610161016901660163016C016F017201F3
S11300C0750178017B017E018101840187018A0128
S11300D08D0190019301960199019C019F01A20158
S11300E0590159015901590159015901EC0AC30A2D
S11300F0C30AC30AC30AC30AC30AC30AEC0AC30A6B
S1130100C30AC30AC30AC30AC30AC30AF60AC30A50
S1130110C30AC30AC30AC30AC30AC30AC30AC30A73
S1130120C30AC30AC30AC30AC30AC30AF60AC30A30
S1130130C30AC30AC30AC30AC30AC30AC30AC30A53
S1130140C30AC30AC30AC30AC30AC30A0D0BC30AF8
S1130150C30AC30AC30AC30AC30AC30A110BC30AE4
S1130160C30AC30AC30AC30AC30AC30AC30AC30A23
S1130170C30AC30AC30AC30AC30AC30A1F0BC30AB6
S1130180C30AC30AC30AC30AC30AC30ADD0A112481
S11301901FBECFEFD0E1DEBFCDBF11E0A0E0B1E0E4
S11301A0ECEAFBE100E00BBF02C007900D92A23223
S11301B0B107D9F722E0A2E2B1E001C01D92AF3449
S11301C0B207E1F70E94740C0C94D40D0C94000057
S11301D00E94580C0C94C80B1F920F920FB60F92EA
S11301E011248F9381E080933F028F910F900FBE73
S11301F00F901F9018951F920F920FB60F92112413
S11302000BB60F922F933F934F935F936F937F930C
S11302108F939F93AF93BF93EF93FF9368E082E034
S11302200E940E088CB180939401E091320191E018
S11302309E0F90933201F0E0E759FE4F80838111C5
S113024009C081E08093370180E2808381838283C7
S113025010923201FF91EF91BF91AF919F918F91D5
S11302607F916F915F914F913F912F910F900BBEB2
S11302700F900FBE0F901F901895369A349BFECFA7
S1130280349A84B195B190935C0180935B01089595
S113029020915B0130915C01ADECBCEC0E94480DF7
S11302A0929582958F7089279F7089278033910555
S11302B018F08FEF83BD0895FC01EA5BFF4F0C94A7
S11302C03F0D13BC089585E083BD089582E083BD8E
S11302D0089581E083BD089588E083BD08958FE08B
S11302E083BD089580E183BD089582E183BD0895AF
S11302F085E183BD08958FE183BD08958FE283BDB9
S113030008958FE383BD08958FE483BD08958FE539
S113031083BD08958FE683BD08958FE783BD089557
S11303208FE883BD08958FE983BD08958FEA83BD67
S113033008958FEB83BD08958FEC83BD08958FEDF1
S113034083BD08958FEE83BD0895E9E3F1E080EC69
S1130350808389EF818384EA828380EB838389E9C4
S1130360848382E9858382E8868388EF878380E8B3
S1130370808780E981878FEF8287089587B78160BE
S113038087BF83B7816083BF80B7886080BF0895CB
S113039085B5896785BD8FEF83BD0895139AEBE812
S11303A0F0E08081826C8083EAE8F0E080818961FA
S11303B0808380E090EF90938700809386009093F1
S11303C08100809380000895CF93DF9325E431E08A
S11303D0F901A1819DECA99F812D11248695869513
S11303E086954A2FFAE08F9F40191124842FCDE778
S11303F0D1E0E42FF0E0E75CFE4F40814883A81B86
S1130400A99FA12D1124A695A695A695B0E0A75C59
S1130410BE4F8C918983D9011296EC91E99F812D6D
S11304201124869586958695FE2FBAE08B9FF01948
S11304301124AF2FB0E0A75CBE4F2C912B83EF1B90
S1130440E99FE12D1124E695E695E695F0E0E75C59
S1130450FE4F80818C83DF91CF910895CF93DF93FA
S113046028E431E0F901A1819DECA99F812D11249B
S11304708695869586954A2FFAE08F9F4019112418
S1130480842FC4E6D1E0E42FF0E0E75CFE4F408126
S11304904883A81BA99FA12D1124A695A695A695CE
S11304A0B0E0A75CBE4F8C918983D9011296EC9180
S11304B0E99F812D1124869586958695FE2FBAE0B5
S11304C08B9FF0191124AF2FB0E0A75CBE4F2C9185
S11304D02B83EF1BE99FE12D1124E695E695E69524
S11304E0F0E0E75CFE4F80818C83DF91CF9108952B
S11304F02091020130910301ADECBCEC0E94480D47
S1130500AC015695479556954795569547959A014A
S11305100E94480DBC01769567957695679576950A
S11305206795CB01880F991F660F771F660F771F9A
S1130530660F771F680F791FCA01861B970BBC01D2
S1130540FC01E75CFE4F808180938601461B570BBC
S11305509A013695279536952795ABE7B4E10E9425
S1130560480DFC01F695E79524E62E9FC0012F9FC8
S1130570900D1124FA01E81BF90B9F01ADECBCECC2
S11305800E94480D9695879596958795969587959B
S1130590DC01A75CBE4F8C918F77809387014E1B43
S11305A05F0B9A01369527953695279536952795AD
S11305B0A5ECB0E20E94480DFC01F295E295EF70C3
S11305C0EF27FF70EF2728EE33E0E29FC001E39F9F
S11305D0900DF29F900D1124FA01E81BF90B9F0175
S11305E03695279536952795ABE7B4E10E94480DDB
S11305F096958795DC01A75CBE4F8C918093890109
S11306004E1B5F0B9A01329522952F7023273F7062
S11306102327A7E4B3E00E94480D96958795969505
S113062087959695879560E177E2869F9001879FED
S1130630300D969F300D1124CA01821B930B9C012F
S1130640369527953695279536952795A5ECB0E2EE
S11306500E94480D929582958F7089279F708927F3
S1130660009711F48AE090E0FC01E75CFE4F808182
S113067080938A018FEF8093880108951F9A1E98B2
S11306801E9A1F981FB8779BFECF8FB10895CF9302
S1130690DF931F92CDB7DEB70E943E038095982F5B
S11306A09370C9F49091850193709130D1F0923098
S11306B091F420910201309103012C5E3F4F30935D
S11306C003012093020189830E94780290917901A9
S11306D08981913069F0809385010F90DF91CF91EA
S11306E00895209102013091030124513109E7CF8B
S11306F089830E94580C0E94C80B8981ECCF809199
S1130700470190914A019817A9F0909184018917A3
S113071011F080E00895909183018091460198132F
S1130720F8CF81E02091820190914501291791F33E
S113073080E0F0CF20914901909146012913E5CF43
S113074020914801909145012913DFCF81E008955C
S1130750109287001092860087B7806187BF81E07E
S11307608093630108958FEF9FEF909387008093A8
S1130770860087B78F7E87BF1092630108951F920A
S11307800F920FB60F9211242F938F939F931FBC38
S113079080917A0190917B01019690937B018093E3
S11307A07A0180FD2AC0939A80917A0190917B010D
S11307B08A3921E0920709F4A4C008F5843B910525
S11307C009F475C008F441C08A3421E0920709F4A1
S11307D088C008F071C0863321E0920709F491C003
S11307E0803421E0920709F464C0853B910529F522
S11307F080E490E09BBD8ABD20C09398D5CF823120
S113080022E0920709F49DC0A0F1863C22E0920701
S113081009F49CC008F040C0863222E0920709F433
S113082070C0803322E0920709F47CC08C3192407E
S113083021F480E290E09BBD8ABD9F918F912F911E
S11308400F900FBE0F901F9018958E31910509F4EB
S113085048C008F44BC08233910509F452C08C336C
S1130860910539F3889749F780E291E09BBD8ABDF1
S1130870E4CF883B21E09207B9F358F18E3F21E0A1
S1130880920709F459C0883022E0920709F44FC056
S1130890823C914091F6CDCF813B24E0920749F20E
S11308A0893725E09207C9F1803B944031F68FEFF8
S11308B09FEF9BBD8ABDC1CF8E3521E0920709F120
S11308C0883621E09207C1F08435914009F0B5CF14
S11308D0CBCF843A21E0920779F08E3A914009F027
S11308E0ACCF80E391E09BBD8ABDA7CF8A30910550
S11308F041F0449709F0A1CF80E491E09BBD8ABD0B
S11309009CCF80E591E09BBD8ABD9F918F912F91F3
S11309100F900FBE0F901F90189510927B011092AC
S11309207A018BCF80E690E09BBD8ABD86CF80E0C4
S113093091E09BBD8ABD81CF80E592E09BBD8ABDDD
S11309407CCF80E691E09BBD8ABD77CF80E590E0C7
S11309509BBD8ABD72CFE2E2F1E0ACE8B1E040E0D9
S113096050E099B320813181220F331F306E892FDB
S113097090E0042E02C0959587950A94E2F7817061
S11309809927822B932B819391938115904F41F05A
S11309901D924F5F5F4F4830510519F780E008956D
S11309A0FA01E457FE4F81E080830895FC018081C1
S11309B08BBB18BA8FE193E00197F1F700C00000F8
S11309C081818BBB80E188BB8FE193E00197F1F7D4
S11309D000C0000082818BBB80E288BB8FE193E082
S11309E00197F1F700C0000083818BBB80E388BBD3
S11309F08FE193E00197F1F700C0000084818BBB85
S1130A0080E488BB8FE193E00197F1F700C0000018
S1130A1080E688BB089580913801813061F038F018
S1130A20823021F486E891E00C94D60408958DE791
S1130A3091E00C94D60484E691E00C94D60462E030
S1130A4082E00E940E0842E067EC71E080E90E94B7
S1130A504F0B0E940B05E7ECF1E0808190E0982FAA
S1130A6088272181822B4AE06BE471E0880F892F6B
S1130A70881F990B91950E948D0D8BE491E00C9445
S1130A80B2081F920F920FB60F9211240BB60F9259
S1130A902F933F934F935F936F937F938F939F9382
S1130AA0AF93BF93EF93FF9380917C018F5F80930B
S1130AB07C019DEC899F912D112496959695969590
S1130AC0382F2AE0929F3019112431110EC0369A22
S1130AD0349BFECF349A84B195B190935C0180939A
S1130AE05B010E94480180917C01803409F444C078
S1130AF0803829F180918B01882371F00E947F0353
S1130B00882351F0109287001092860087B7806185
S1130B1087BF81E080936301FF91EF91BF91AF9113
S1130B209F918F917F916F915F914F913F912F9101
S1130B300F900BBE0F900FBE0F901F9018958091D1
S1130B407F01836080937F01809145018F5F809353
S1130B5045018C33F9F0809146018C3329F1809161
S1130B604701883191F010927C0180915D01909150
S1130B705E010E941F05BECF83E60E94690B80912F
S1130B807F018C7F80937F01B5CF109247010E9433
S1130B90E401E9CF809146018F5F80934601109272
S1130BA045010E94E401D7CF809147018F5F809374
S1130BB04701109246010E94E401D1CFE2E8F1E03E
S1130BC0A8E4B1E08C91808311968C911197818374
S1130BD012968C9182830895309147013093840159
S1130BE0909146019093830180914501865F8C33F7
S1130BF0D8F029E8829F212D11242295269527706B
S1130C004CE3249F80191124809382019F5F9C33BD
S1130C1019F0909383010895109283013F5F383156
S1130C2031F03093840108958093820108951092E5
S1130C3084010895CF93DF9310928B0110923801B1
S1130C4010927C01E5E4F1E01082118212828FEFB0
S1130C5080937F010E94E401C8E4D1E018821982E4
S1130C601A828CEF809366010E942E02E2E8F1E082
S1130C7088818083898181838A81828310927B0128
S1130C8010927A011FBC80E691E09BBD8ABD8EB5AF
S1130C908B608EBD10927A0080E1E9E6F1E0DF011D
S1130CA01D928A95E9F710927901DF91CF91089509
S1130CB0E1E6F0E0808188608083E2E6F0E0808114
S1130CC0877F808387B3876087BBC19A82B1806C3A
S1130CD082B980E58DB981E08EB908951F98179A7D
S1130CE01A9A8FE193E00197F1F700C000001A9877
S1130CF090EA9A95F1F7179889B7806889BF8AB7FF
S1130D0080648ABF0895CF930E94AB048823C9F0FE
S1130D10809138018130B9F0C8F1823091F480912A
S1130D208F01813009F477C0C0919001C13049F43A
S1130D3080917901882309F461C00E94E30B109229
S1130D407901CF91089580918D01813009F465C0B6
S1130D5080919201813009F480C0809193018130A7
S1130D6081F7809149018B3308F0B5C08F5F809380
S1130D70490190914801909382018093830180916D
S1130D804A0180938401CF910C942E0280918D01AD
S1130D90813009F448C080918E01813009F446C045
S1130DA0C0918C01C13009F46CC080918F018130F5
S1130DB0B9F1C0919001C130A9F0809192018130C4
S1130DC009F48DC080919301813009F0BACF8091EC
S1130DD046018B3308F0AEC08F5F80934601CF91FC
S1130DE00C94E40180917901811196C00E946E06F1
S1130DF08FE99FE00197F1F700C0000080E090E5E3
S1130E0090938700809386000E94580C0E94C80B20
S1130E10C093790196CF0E9478021092380191CF45
S1130E200E94780282E0809338018BCF8091630125
S1130E30882309F486CF8FEF9FEF909387008093E8
S1130E40860087B78F7E87BF109263010E94EC05EE
S1130E5010927B0110927A0174CF80914A018731FC
S1130E60B0F58F5F80934A0190914801909382017D
S1130E70909149019093830180938401CF910C94C4
S1130E802E0280918B01882391F1813009F059CF92
S1130E9060E00E940E0884E091E00E94B2088FEFA7
S1130EA09FEF909387008093860087B78F7E87BFDC
S1130EB01092630180917F01846080937F0180910F
S1130EC0660184608093660110928B013ACF109280
S1130ED04A0180E0C9CF1092490180E04ACF809155
S1130EE04701873120F58F5F8093470178CF60E019
S1130EF081E00E940E088FE091E00E94B208809188
S1130F007F018B7F80937F01809166018B7F80932B
S1130F106601C0938B0115CF80E090EF909387001A
S1130F20809386000E94E30B109279010ACF1092FD
S1130F30470155CF1092460152CF91E0811101C073
S1130F4090E09FB9779BFECF6FB9779BFECF8091DE
S1130F50620088608093620080916200877F809342
S1130F6062000895CF93C09133018C0F911DFC0151
S1130F70608181E00E949D0781E08C0F80933301A2
S1130F80803181F0803211F0CF91089585ED8A95FA
S1130F90F1F7000060E880E00E949D0710923301A1
S1130FA0CF910895F5EDFA95F1F7000060EC80E03B
S1130FB00E949D0780913301E5CFEF92FF920F933A
S1130FC01F93CF93DF931F92CDB7DEB7182F660F11
S1130FD0660F660F605C80E099830E949D0785ED33
S1130FE08A95F1F70000E12E9981F92E8701085FB7
S1130FF01F4FF70161917F0181E00E949D07F5ED8C
S1131000FA95F1F70000E016F10699F70F90DF91D9
S1131010CF911F910F91FF90EF90089590E4899FD5
S1131020600D1124605C80E00C949D07CF938823AD
S1131030B9F1C82F843698F48A30D8F48DECC89F5F
S1131040812D11248695869586956C2F2AE0829FA2
S113105060191124605D81E0CF910C949D0769E2D1
S1131060869F612D112462956F70605D81E00E94FE
S11310709D0789E2C89F812D112482958F709C2F32
S113108024E6829F901911246DEC969F612D112402
S1131090669566956695605D81E00E949D07CECF5A
S11310A060E381E0CF910C949D07CF9387FD03C04B
S11310B0CF910C941608C82F6DE281E00E949D0721
S11310C085ED8A95F1F700008C2F8195CF910C94D2
S11310D016086EE080E00C949D076CE080E00C94B0
S11310E09D076EE180E00C949D0768E180E00C941C
S11310F09D07E2E6F0E08081886080838081877FBD
S11311008083089561E080E00E949D078FE19CE167
S11311100197F1F700C00000089562E080E00E94AA
S11311209D078FE697E10197F1F700C0000008954D
S113113060EC80E00C949D0760E880E00C949D07CF
S1131140CF93C0E160E281E00E949D0785ED8A951E
S1131150F1F70000C150B1F7CF910895682F81E0F5
S11311600C949D070F931F93CF938C0140E050E0A4
S1131170C0E0F801E40FF51F608181E00E949D0743
S113118085ED8A95F1F70000CF5F4C2F50E0F80110
S113119001900020E9F79F01201B310B22503109F7
S11311A02417350730F7CF911F910F9108958FEFD2
S11311B099EF0197F1F700C0000088E08093610087
S11311C060E380E00E949D078FE59DE60197F1F7BB
S11311D000C0000060E380E00E949D078FE59DE66B
S11311E00197F1F700C0000060E380E00E949D07D2
S11311F08FE59DE60197F1F700C0000068E380E009
S11312000E949D078FE19EE40197F1F700C0000062
S113121068E080E00E949D078FE19EE40197F1F76A
S113122000C0000061E080E00E949D078FE19EE421
S11312300197F1F700C0000066E080E00E949D077E
S11312408FE19EE40197F1F700C000006CE080E0BC
S11312500E949D078FE19EE40197F1F700C0000012
S113126008958F929F92AF92BF92CF92DF92EF92A6
S1131270FF920F931F93CF93DF93CDB7DEB7699798
S11312800FB6F894DEBF0FBECDBFF42E122F00238D
S113129059F04B015C018824B7FC83949924AA2457
S11312A0BB24082D97FD8FC0112309F484C09E012F
S11312B02F5F3F4F6901590188248A94810E912C34
S11312C03FEF831A930A8C0C9D1C2AE030E040E027
S11312D050E00E94200DE62F2A8B3B8B4C8B5D8BBC
S11312E06A897B898C899D8920E32E0FF5012193DE
S11312F05F01E815F90549F7BB24B394B10EF60173
S1131300E10FF11D2EE220832AE030E040E050E0BE
S11313100E94200DE62F2A8B3B8B4C8B5D8B6E8BB2
S11313207F8B888F998F6A897B898C899D8911E04D
S11313301B0DD601AB0DB11DE05DEC93B12E611513
S113134071058105910501F7FF2061F0E11039C0B5
S113135080E21F1538F4F601E10FF11D80831F5F51
S11313601F11F9CF002331F0F601E10FF11D8DE2D9
S113137080831F5F1150F601E10FF11D608181E050
S11313800E949D0735ED3A95F1F700001111F2CF57
S113139069960FB6F894DEBF0FBECDBFDF91CF9133
S11313A01F910F91FF90EF90DF90CF90BF90AF907F
S11313B09F908F900895B12C9E012F5F3F4F69013C
S11313C0A3CF80E3C6CF90958095709561957F4FAC
S11313D08F4F9F4F69CF5F926F927F928F929F92B0
S11313E0AF92BF92CF92DF92EF92FF920F931F932F
S11313F0CF93DF93CDB7DEB761970FB6F894DEBF16
S11314000FBECDBFA62E542E622E792E771C7724C4
S1131410771CB72CC72CD12CEE27FF27EC19FD091C
S11314208E279F27FC01EC0DFD1D442309F48EC07B
S1131430CE0101967C018C0188248A94840E912C1F
S11314409FEF891A990A8E0C9F1C6AE070E0CF0105
S11314500E940C0D262FE22FF72F805DD8018D936B
S11314608D01A815B90589F701E0050DD701A50D72
S1131470B11D8EE28C936AE070E0CF010E940C0DE6
S1131480262FE22FF72F11E0100FD701A00FB11D67
S1131490805D8C93012F309771F7611015C0772010
S11314A039F011E0100FF701E00FF11D8DE2808398
S11314B0AA2041F1812F90E02A2D30E08217930772
S11314C00CF5B12C40E20CC0AA20A1F0812F90E0D1
S11314D02A2D30E02C193D09821793075CF440E370
S11314E01F5FF701E80FF91F4083812F90E08217F7
S11314F09307B4F3BB2031F0F701E10FF11D8DE246
S113150080831F5F1150F701E10FF11D608181E0BD
S11315100E949D0795ED9A95F1F700001111F2CF05
S113152061960FB6F894DEBF0FBECDBFDF91CF91A9
S11315301F910F91FF90EF90DF90CF90BF90AF90ED
S11315409F908F907F906F905F90089500E0CE0100
S113155001967C0190CF1F920F920FB60F92112427
S11315600BB60F922F933F938F939F93AF93BF9399
S1131570EF93FF93E09171008E2F90E0FC01389778
S1131580E135F105B0F0809171008093C90184E0E8
S113159080937400FF91EF91BF91AF919F918F91D0
S11315A03F912F910F900BBE0F900FBE0F901F9085
S11315B01895EA58FF4F0C943F0D80913401E09147
S11315C0CA01F091CB01E80FF11D80917300808373
S11315D084E980937400DECF8091CC018093730002
S11315E01092340185E880937400D4CF8091340143
S11315F09091CD01891760F7E091CA01F091CB0178
S113160091E0980F90933401E80FF11D808180934D
S1131610730085E880937400BDCF85EA80937400DD
S1131620B9CF209134018091CD0130E090E0019751
S113163028173907DCF485EC80937400ABCFE09174
S1131640CA01F091CB018091340121E0280F20934D
S11316503401E80FF11D8091730080838091CD01E6
S113166030E090E00197281739072CF385E8809340
S1131670740090CF809174008170089590917400EB
S113168090FDFCCF8E7F8093CC017093CB0160934F
S1131690CA014093CD0185EA809374000895909126
S11316A0740090FDFCCF81608093CC017093CB01DA
S11316B06093CA014093CD0185EA80937400089534
S11316C08FEF80937300109271008CE08093700010
S11316D008955D9BFECF8CB95D9BFECF0895FC0100
S11316E09081992349F031965D9BFECF9CB95D9B17
S11316F0FECF91919111F8CF08959C01FC01449182
S1131700442369F00196F90124915D9BFECF2CB925
S11317105D9BFECF9C01FC0144914111F3CF0895E0
S11317208AB188698AB9E5E9F0E0808186608083BE
S1131730109290008FEC89B9089580E89EE302C06E
S1131740019721F05F9BFCCF8CB1089580E0089550
S113175084E180931E0241E06EE172E082E20E9425
S11317603E0B0E943A0B8111FCCF8FEA94E0019763
S1131770F1F700C0000041E060E472E082E20E9400
S11317804F0B0E943A0B8111FCCF809140020895C7
S113179080913F028823E1F380E280931E0210923D
S11317A01F02809102019091030190932002809383
S11317B021021092220210923F0245E06EE172E093
S11317C082E20C943E0B609102017091030180E06F
S11317D091E00E94CF0D6091610185E391E00E9448
S11317E0C20D81E180931E0241E06EE172E082E26B
S11317F00E943E0B87ED94E00197F1F700C00000D2
S1131800089583E280931E0281E080931F0242E0E8
S11318106EE172E082E20E943E0B0E943A0B81115B
S1131820FCCF8FEA94E00197F1F700C0000048E094
S113183067E272E082E20E944F0B0E943A0B811130
S1131840FCCF089582E280931E0281E080931F0200
S113185042E06EE172E082E20E943E0B0E943A0B8B
S11318608111FCCF8FEA94E00197F1F700C00000EA
S113187048E067E272E082E20E944F0B0E943A0B5A
S11318808111FCCF0895EEE1F2E022E12083118280
S1131890928383837483658346E0BF0182E20E945E
S11318A03E0B8FE39CE90197F1F700C00000089517
S11318B0EEE1F2E081E0808380E5818385E082834C
S11318C043E0BF0182E20E943E0B2FEF8BED95E0D7
S11318D0215080409040E1F700C0000061E070E0DA
S11318E081E090E00C94430C10925E0110925D0133
S11318F080EC8093390189EF80933A0184EA8093E4
S11319003B0180EB80933C0189E980933D0182E9AE
S113191080933E0182E880933F0188EF80934001E9
S113192080E88093410180E980934201CFEFC09326
S113193043010E941A0687B7816087BF83B781601D
S113194083BF80B7886080BF85B5896785BDC3BD07
S1131950139A80918B00826C80938B0080918A0013
S1131960896180938A0080E090EF90938700809350
S1131970860090938100809380008B9A87B3806F58
S113198087BB0E94900B0E9458060E94D7080E94B1
S1131990600B0E948208809161008F7780936100C0
S11319A0809162008F778093620087E487B987E82B
S11319B086B9789460E082E00E940E088AE191E0A2
S11319C00E94B20866E082E00E940E088EE191E077
S11319D00E94B208129A139A1A9A1B9AD0E702C06C
S11319E00E9447031ABACBBBD8BB8FE891E001979A
S11319F0F1F700C000000E94830618BACABB0E9417
S1131A000B0580913701813059F789E691E00E94F6
S1131A10B20810923701E4CF97FB072E16F4009416
S1131A2007D077FD09D00E94570D07FC05D03EF47E
S1131A30909581959F4F0895709561957F4F089576
S1131A40052E97FB1EF400940E94370D57FD07D016
S1131A500E946B0D07FC03D04EF40C94370D509587
S1131A604095309521953F4F4F4F5F4F0895909586
S1131A708095709561957F4F8F4F9F4F0895EE0F1E
S1131A80FF1F0024001C0BBE0790F691E02D099463
S1131A90A29FB001B39FC001A39F700D811D1124AB
S1131AA0911DB29F700D811D1124911D0895AA1BD3
S1131AB0BB1B51E107C0AA1FBB1FA617B70710F035
S1131AC0A61BB70B881F991F5A95A9F78095909567
S1131AD0BC01CD010895A1E21A2EAA1BBB1BFD0176
S1131AE00DC0AA1FBB1FEE1FFF1FA217B307E407F9
S1131AF0F50720F0A21BB30BE40BF50B661F771F51
S1131B00881F991F1A9469F7609570958095909530
S1131B109B01AC01BD01CF010895BB274A3031F4CC
S1131B20992322F4BDE2909581959F4F0C94990DD1
S1131B30BB27FB015527AA27880F991FAA1FA417A3
S1131B4010F0A41B83955051B9F7A05DAA3308F097
S1131B50A95DA193009779F7B111B1931192CB01CB
S1131B600C94B20DDC01FC01672F71917723E1F72E
S1131B70329704C07C916D9370836291AE17BF0756
S1131B80C8F30895262FE199FECF9FBB8EBB2DBBD2
S1131B900FB6F894E29AE19A0FBE019608950E9456
S10F1BA0C20D272F0C94C30DF894FFCF46
S1131BAC062706272020202020202020202000206B
S1131BBC416C61726D2073657400204C3A002052A4
S1051BCC3A00D9
S9030000FC
